:020000020000FC
:1000000012C0189518951895189518951895189563
:100010001895189518954EC0189518951895189517
:10002000189518951895F89404E00DBF0FE50EBFCC
:1000300005E806B90AE005BF00EC0BBF07E109B906
:1000400006E800BD08E90AB900E00FBD06E00EBDF4
:1000500006E003BF30E000E010E020E040E07894EC
:10006000013019F0023039F0FBCF00E407B9369ABD
:1000700012D008D0F5CF2DBD2CBD12D01CB50DB5BA
:1000800001D0EECF5D9BFECF0CB90AD05D9BFECFB9
:100090001CB906D008953699FECF14B105B1089564
:1000A00054E160EF7FEF7A95F1F76A95D9F75A95A9
:0800B000C1F708950CB1189589
:00000001FF
